{
  "address": "0x48e1690d9f307b246750388Cb8D7cc7528c1af90",
  "abi": [
    {
      "inputs": [],
      "stateMutability": "nonpayable",
      "type": "constructor"
    },
    {
      "inputs": [],
      "name": "ERC721EnumerableForbiddenBatchMint",
      "type": "error"
    },
    {
      "inputs": [
        {
          "internalType": "address",
          "name": "sender",
          "type": "address"
        },
        {
          "internalType": "uint256",
          "name": "tokenId",
          "type": "uint256"
        },
        {
          "internalType": "address",
          "name": "owner",
          "type": "address"
        }
      ],
      "name": "ERC721IncorrectOwner",
      "type": "error"
    },
    {
      "inputs": [
        {
          "internalType": "address",
          "name": "operator",
          "type": "address"
        },
        {
          "internalType": "uint256",
          "name": "tokenId",
          "type": "uint256"
        }
      ],
      "name": "ERC721InsufficientApproval",
      "type": "error"
    },
    {
      "inputs": [
        {
          "internalType": "address",
          "name": "approver",
          "type": "address"
        }
      ],
      "name": "ERC721InvalidApprover",
      "type": "error"
    },
    {
      "inputs": [
        {
          "internalType": "address",
          "name": "operator",
          "type": "address"
        }
      ],
      "name": "ERC721InvalidOperator",
      "type": "error"
    },
    {
      "inputs": [
        {
          "internalType": "address",
          "name": "owner",
          "type": "address"
        }
      ],
      "name": "ERC721InvalidOwner",
      "type": "error"
    },
    {
      "inputs": [
        {
          "internalType": "address",
          "name": "receiver",
          "type": "address"
        }
      ],
      "name": "ERC721InvalidReceiver",
      "type": "error"
    },
    {
      "inputs": [
        {
          "internalType": "address",
          "name": "sender",
          "type": "address"
        }
      ],
      "name": "ERC721InvalidSender",
      "type": "error"
    },
    {
      "inputs": [
        {
          "internalType": "uint256",
          "name": "tokenId",
          "type": "uint256"
        }
      ],
      "name": "ERC721NonexistentToken",
      "type": "error"
    },
    {
      "inputs": [
        {
          "internalType": "address",
          "name": "owner",
          "type": "address"
        },
        {
          "internalType": "uint256",
          "name": "index",
          "type": "uint256"
        }
      ],
      "name": "ERC721OutOfBoundsIndex",
      "type": "error"
    },
    {
      "inputs": [],
      "name": "NotOwner",
      "type": "error"
    },
    {
      "anonymous": false,
      "inputs": [
        {
          "indexed": true,
          "internalType": "address",
          "name": "owner",
          "type": "address"
        },
        {
          "indexed": true,
          "internalType": "address",
          "name": "approved",
          "type": "address"
        },
        {
          "indexed": true,
          "internalType": "uint256",
          "name": "tokenId",
          "type": "uint256"
        }
      ],
      "name": "Approval",
      "type": "event"
    },
    {
      "anonymous": false,
      "inputs": [
        {
          "indexed": true,
          "internalType": "address",
          "name": "owner",
          "type": "address"
        },
        {
          "indexed": true,
          "internalType": "address",
          "name": "operator",
          "type": "address"
        },
        {
          "indexed": false,
          "internalType": "bool",
          "name": "approved",
          "type": "bool"
        }
      ],
      "name": "ApprovalForAll",
      "type": "event"
    },
    {
      "anonymous": false,
      "inputs": [
        {
          "indexed": true,
          "internalType": "uint256",
          "name": "tokenId",
          "type": "uint256"
        },
        {
          "indexed": true,
          "internalType": "address",
          "name": "owner",
          "type": "address"
        },
        {
          "indexed": true,
          "internalType": "uint256",
          "name": "oxygen",
          "type": "uint256"
        }
      ],
      "name": "OxygenUpdated",
      "type": "event"
    },
    {
      "anonymous": false,
      "inputs": [
        {
          "indexed": true,
          "internalType": "uint256",
          "name": "tokenId",
          "type": "uint256"
        },
        {
          "indexed": true,
          "internalType": "address",
          "name": "owner",
          "type": "address"
        },
        {
          "indexed": true,
          "internalType": "uint256",
          "name": "score",
          "type": "uint256"
        }
      ],
      "name": "ScoreUpdated",
      "type": "event"
    },
    {
      "anonymous": false,
      "inputs": [
        {
          "indexed": true,
          "internalType": "address",
          "name": "from",
          "type": "address"
        },
        {
          "indexed": true,
          "internalType": "address",
          "name": "to",
          "type": "address"
        },
        {
          "indexed": true,
          "internalType": "uint256",
          "name": "tokenId",
          "type": "uint256"
        }
      ],
      "name": "Transfer",
      "type": "event"
    },
    {
      "inputs": [
        {
          "internalType": "address",
          "name": "to",
          "type": "address"
        },
        {
          "internalType": "uint256",
          "name": "tokenId",
          "type": "uint256"
        }
      ],
      "name": "approve",
      "outputs": [],
      "stateMutability": "nonpayable",
      "type": "function"
    },
    {
      "inputs": [
        {
          "internalType": "address",
          "name": "owner",
          "type": "address"
        }
      ],
      "name": "balanceOf",
      "outputs": [
        {
          "internalType": "uint256",
          "name": "",
          "type": "uint256"
        }
      ],
      "stateMutability": "view",
      "type": "function"
    },
    {
      "inputs": [
        {
          "internalType": "uint256",
          "name": "_tokenId",
          "type": "uint256"
        }
      ],
      "name": "burn",
      "outputs": [],
      "stateMutability": "nonpayable",
      "type": "function"
    },
    {
      "inputs": [],
      "name": "getAllTokenIds",
      "outputs": [
        {
          "internalType": "uint256[]",
          "name": "",
          "type": "uint256[]"
        }
      ],
      "stateMutability": "view",
      "type": "function"
    },
    {
      "inputs": [],
      "name": "getAllTokenMetadatas",
      "outputs": [
        {
          "components": [
            {
              "internalType": "uint256",
              "name": "tokenId",
              "type": "uint256"
            },
            {
              "internalType": "address",
              "name": "owner",
              "type": "address"
            },
            {
              "internalType": "uint256",
              "name": "score",
              "type": "uint256"
            },
            {
              "internalType": "uint256",
              "name": "oxygen",
              "type": "uint256"
            }
          ],
          "internalType": "struct ChainPortalNFT.Metadata[]",
          "name": "",
          "type": "tuple[]"
        }
      ],
      "stateMutability": "view",
      "type": "function"
    },
    {
      "inputs": [
        {
          "internalType": "uint256",
          "name": "tokenId",
          "type": "uint256"
        }
      ],
      "name": "getApproved",
      "outputs": [
        {
          "internalType": "address",
          "name": "",
          "type": "address"
        }
      ],
      "stateMutability": "view",
      "type": "function"
    },
    {
      "inputs": [
        {
          "internalType": "address",
          "name": "owner",
          "type": "address"
        },
        {
          "internalType": "address",
          "name": "operator",
          "type": "address"
        }
      ],
      "name": "isApprovedForAll",
      "outputs": [
        {
          "internalType": "bool",
          "name": "",
          "type": "bool"
        }
      ],
      "stateMutability": "view",
      "type": "function"
    },
    {
      "inputs": [],
      "name": "name",
      "outputs": [
        {
          "internalType": "string",
          "name": "",
          "type": "string"
        }
      ],
      "stateMutability": "view",
      "type": "function"
    },
    {
      "inputs": [],
      "name": "nextTokenId",
      "outputs": [
        {
          "internalType": "uint256",
          "name": "",
          "type": "uint256"
        }
      ],
      "stateMutability": "view",
      "type": "function"
    },
    {
      "inputs": [
        {
          "internalType": "uint256",
          "name": "tokenId",
          "type": "uint256"
        }
      ],
      "name": "ownerOf",
      "outputs": [
        {
          "internalType": "address",
          "name": "",
          "type": "address"
        }
      ],
      "stateMutability": "view",
      "type": "function"
    },
    {
      "inputs": [],
      "name": "safeMint",
      "outputs": [],
      "stateMutability": "nonpayable",
      "type": "function"
    },
    {
      "inputs": [
        {
          "internalType": "address",
          "name": "from",
          "type": "address"
        },
        {
          "internalType": "address",
          "name": "to",
          "type": "address"
        },
        {
          "internalType": "uint256",
          "name": "tokenId",
          "type": "uint256"
        }
      ],
      "name": "safeTransferFrom",
      "outputs": [],
      "stateMutability": "nonpayable",
      "type": "function"
    },
    {
      "inputs": [
        {
          "internalType": "address",
          "name": "from",
          "type": "address"
        },
        {
          "internalType": "address",
          "name": "to",
          "type": "address"
        },
        {
          "internalType": "uint256",
          "name": "tokenId",
          "type": "uint256"
        },
        {
          "internalType": "bytes",
          "name": "data",
          "type": "bytes"
        }
      ],
      "name": "safeTransferFrom",
      "outputs": [],
      "stateMutability": "nonpayable",
      "type": "function"
    },
    {
      "inputs": [
        {
          "internalType": "address",
          "name": "operator",
          "type": "address"
        },
        {
          "internalType": "bool",
          "name": "approved",
          "type": "bool"
        }
      ],
      "name": "setApprovalForAll",
      "outputs": [],
      "stateMutability": "nonpayable",
      "type": "function"
    },
    {
      "inputs": [
        {
          "internalType": "bytes4",
          "name": "interfaceId",
          "type": "bytes4"
        }
      ],
      "name": "supportsInterface",
      "outputs": [
        {
          "internalType": "bool",
          "name": "",
          "type": "bool"
        }
      ],
      "stateMutability": "view",
      "type": "function"
    },
    {
      "inputs": [],
      "name": "symbol",
      "outputs": [
        {
          "internalType": "string",
          "name": "",
          "type": "string"
        }
      ],
      "stateMutability": "view",
      "type": "function"
    },
    {
      "inputs": [
        {
          "internalType": "uint256",
          "name": "index",
          "type": "uint256"
        }
      ],
      "name": "tokenByIndex",
      "outputs": [
        {
          "internalType": "uint256",
          "name": "",
          "type": "uint256"
        }
      ],
      "stateMutability": "view",
      "type": "function"
    },
    {
      "inputs": [
        {
          "internalType": "address",
          "name": "owner",
          "type": "address"
        },
        {
          "internalType": "uint256",
          "name": "index",
          "type": "uint256"
        }
      ],
      "name": "tokenOfOwnerByIndex",
      "outputs": [
        {
          "internalType": "uint256",
          "name": "",
          "type": "uint256"
        }
      ],
      "stateMutability": "view",
      "type": "function"
    },
    {
      "inputs": [
        {
          "internalType": "uint256",
          "name": "tokenId",
          "type": "uint256"
        }
      ],
      "name": "tokenURI",
      "outputs": [
        {
          "internalType": "string",
          "name": "",
          "type": "string"
        }
      ],
      "stateMutability": "view",
      "type": "function"
    },
    {
      "inputs": [],
      "name": "totalSupply",
      "outputs": [
        {
          "internalType": "uint256",
          "name": "",
          "type": "uint256"
        }
      ],
      "stateMutability": "view",
      "type": "function"
    },
    {
      "inputs": [
        {
          "internalType": "address",
          "name": "from",
          "type": "address"
        },
        {
          "internalType": "address",
          "name": "to",
          "type": "address"
        },
        {
          "internalType": "uint256",
          "name": "tokenId",
          "type": "uint256"
        }
      ],
      "name": "transferFrom",
      "outputs": [],
      "stateMutability": "nonpayable",
      "type": "function"
    },
    {
      "inputs": [
        {
          "internalType": "uint256",
          "name": "_tokenId",
          "type": "uint256"
        },
        {
          "internalType": "uint256",
          "name": "_oxygen",
          "type": "uint256"
        }
      ],
      "name": "updateOxygen",
      "outputs": [],
      "stateMutability": "nonpayable",
      "type": "function"
    },
    {
      "inputs": [
        {
          "internalType": "uint256",
          "name": "_tokenId",
          "type": "uint256"
        },
        {
          "internalType": "uint256",
          "name": "_score",
          "type": "uint256"
        }
      ],
      "name": "updateScore",
      "outputs": [],
      "stateMutability": "nonpayable",
      "type": "function"
    }
  ],
  "transactionHash": "0x19b0b0d96bd392eef4d1751ad573fb31aaa565487d95973b0a4ebd56698c6ae8",
  "args": [],
  "numDeployments": 1,
  "solcInputHash": "baefd79830b36f34cd1aec09dba6d3a2",
  "bytecode": "0x608060405234801561001057600080fd5b506040518060400160405280600b81526020016a10da185a5b941bdc9d185b60aa1b8152506040518060400160405280600381526020016210d41560ea1b81525081600090816100609190610114565b50600161006d8282610114565b5050506101d2565b634e487b7160e01b600052604160045260246000fd5b600181811c9082168061009f57607f821691505b6020821081036100bf57634e487b7160e01b600052602260045260246000fd5b50919050565b601f82111561010f57806000526020600020601f840160051c810160208510156100ec5750805b601f840160051c820191505b8181101561010c57600081556001016100f8565b50505b505050565b81516001600160401b0381111561012d5761012d610075565b6101418161013b845461008b565b846100c5565b6020601f821160018114610175576000831561015d5750848201515b600019600385901b1c1916600184901b17845561010c565b600084815260208120601f198516915b828110156101a55787850151825560209485019460019092019101610185565b50848210156101c35786840151600019600387901b60f8161c191681555b50505050600190811b01905550565b611a50806101e16000396000f3fe608060405234801561001057600080fd5b506004361061014d5760003560e01c80634f6ccce7116100c3578063a22cb4651161007c578063a22cb465146102a7578063b88d4fde146102ba578063bdbed722146102cd578063c87b56dd146102e2578063d651065d146102f5578063e985e9c51461030857600080fd5b80634f6ccce7146102555780636352211e146102685780636871ee401461027b57806370a082311461028357806375794a3c1461029657806395d89b411461029f57600080fd5b8063095ea7b311610115578063095ea7b3146101e457806318160ddd146101f757806323b872dd146102095780632f745c591461021c57806342842e0e1461022f57806342966c681461024257600080fd5b806301ffc9a714610152578063066623871461017a57806306fdde031461018f578063081812fc146101a457806309218e7b146101cf575b600080fd5b610165610160366004611586565b61031b565b60405190151581526020015b60405180910390f35b61018261032c565b60405161017191906115a3565b610197610453565b6040516101719190611662565b6101b76101b2366004611675565b6104e5565b6040516001600160a01b039091168152602001610171565b6101e26101dd36600461168e565b61050e565b005b6101e26101f23660046116cc565b610588565b6008545b604051908152602001610171565b6101e26102173660046116f6565b610597565b6101fb61022a3660046116cc565b610627565b6101e261023d3660046116f6565b61068c565b6101e2610250366004611675565b6106ac565b6101fb610263366004611675565b6106f3565b6101b7610276366004611675565b61074c565b6101e2610757565b6101fb610291366004611733565b6107ac565b6101fb600a5481565b6101976107f4565b6101e26102b536600461174e565b610803565b6101e26102c83660046117a0565b61080e565b6102d5610825565b6040516101719190611884565b6101976102f0366004611675565b6108bb565b6101e261030336600461168e565b610930565b6101656103163660046118bc565b6109aa565b6000610326826109d8565b92915050565b6060600061033a600b6109fd565b67ffffffffffffffff8111156103525761035261178a565b6040519080825280602002602001820160405280156103b757816020015b6103a460405180608001604052806000815260200160006001600160a01b0316815260200160008152602001600081525090565b8152602001906001900390816103705790505b50905060005b6103c7600b6109fd565b81101561044d57600d60006103dd600b84610a07565b8152602080820192909252604090810160002081516080810183528154815260018201546001600160a01b031693810193909352600281015491830191909152600301546060820152825183908390811061043a5761043a6118ef565b60209081029190910101526001016103bd565b50919050565b60606000805461046290611905565b80601f016020809104026020016040519081016040528092919081815260200182805461048e90611905565b80156104db5780601f106104b0576101008083540402835291602001916104db565b820191906000526020600020905b8154815290600101906020018083116104be57829003601f168201915b5050505050905090565b60006104f082610a13565b506000828152600460205260409020546001600160a01b0316610326565b600061051983610a13565b90506001600160a01b0381163314610544576040516330cd747160e01b815260040160405180910390fd5b6000838152600d6020526040808220600201849055518391339186917fcb1751a97077d1d2218ea8f173bcc2c061a9fb6e5681b40dee2c94679d73acc191a4505050565b610593828233610a4c565b5050565b6001600160a01b0382166105c657604051633250574960e11b8152600060048201526024015b60405180910390fd5b60006105d3838333610a59565b9050836001600160a01b0316816001600160a01b031614610621576040516364283d7b60e01b81526001600160a01b03808616600483015260248201849052821660448201526064016105bd565b50505050565b6000610632836107ac565b82106106635760405163295f44f760e21b81526001600160a01b0384166004820152602481018390526044016105bd565b506001600160a01b03919091166000908152600660209081526040808320938352929052205490565b6106a78383836040518060200160405280600081525061080e565b505050565b6106b7600b82610aad565b506000818152600d602052604081208181556001810180546001600160a01b031916905560028101829055600301819055610593908233610a59565b60006106fe60085490565b82106107275760405163295f44f760e21b815260006004820152602481018390526044016105bd565b6008828154811061073a5761073a6118ef565b90600052602060002001549050919050565b600061032682610a13565b600a8054600091826107688361194f565b909155509050610779600b82610ab9565b506000818152600d602052604090208181556001810180546001600160a01b031916339081179091556105939083610ac5565b60006001600160a01b0382166107d8576040516322718ad960e21b8152600060048201526024016105bd565b506001600160a01b031660009081526003602052604090205490565b60606001805461046290611905565b610593338383610adf565b610819848484610597565b61062184848484610b7e565b60606000610833600b6109fd565b67ffffffffffffffff81111561084b5761084b61178a565b604051908082528060200260200182016040528015610874578160200160208202803683370190505b50905060005b610884600b6109fd565b81101561044d57610896600b82610a07565b8282815181106108a8576108a86118ef565b602090810291909101015260010161087a565b60606108c682610a13565b5060006108de60408051602081019091526000815290565b905060008151116108fe5760405180602001604052806000815250610929565b8061090884610ca7565b604051602001610919929190611968565b6040516020818303038152906040525b9392505050565b600061093b83610a13565b90506001600160a01b0381163314610966576040516330cd747160e01b815260040160405180910390fd5b6000838152600d6020526040808220600301849055518391339186917fd3fc5432cc4566e70258d01da8ee72d5186224f8494e1646bb0bf251b19877f391a4505050565b6001600160a01b03918216600090815260056020908152604080832093909416825291909152205460ff1690565b60006001600160e01b0319821663780e9d6360e01b1480610326575061032682610d3a565b6000610326825490565b60006109298383610d8a565b6000818152600260205260408120546001600160a01b03168061032657604051637e27328960e01b8152600481018490526024016105bd565b6106a78383836001610db4565b60006001600160a01b03841615610a9a576000838152600d602052604081206001810180546001600160a01b0319166001600160a01b038816179055600201555b610aa5848484610eba565b949350505050565b60006109298383610f87565b6000610929838361107a565b6105938282604051806020016040528060008152506110c9565b6001600160a01b038216610b1157604051630b61174360e31b81526001600160a01b03831660048201526024016105bd565b6001600160a01b03838116600081815260056020908152604080832094871680845294825291829020805460ff191686151590811790915591519182527f17307eab39ab6107e8899845ad3d59bd9653f200f220920489ca2b5937696c31910160405180910390a3505050565b6001600160a01b0383163b1561062157604051630a85bd0160e11b81526001600160a01b0384169063150b7a0290610bc0903390889087908790600401611997565b6020604051808303816000875af1925050508015610bfb575060408051601f3d908101601f19168201909252610bf8918101906119d4565b60015b610c64573d808015610c29576040519150601f19603f3d011682016040523d82523d6000602084013e610c2e565b606091505b508051600003610c5c57604051633250574960e11b81526001600160a01b03851660048201526024016105bd565b805181602001fd5b6001600160e01b03198116630a85bd0160e11b14610ca057604051633250574960e11b81526001600160a01b03851660048201526024016105bd565b5050505050565b60606000610cb4836110e0565b600101905060008167ffffffffffffffff811115610cd457610cd461178a565b6040519080825280601f01601f191660200182016040528015610cfe576020820181803683370190505b5090508181016020015b600019016f181899199a1a9b1b9c1cb0b131b232b360811b600a86061a8153600a8504945084610d0857509392505050565b60006001600160e01b031982166380ac58cd60e01b1480610d6b57506001600160e01b03198216635b5e139f60e01b145b8061032657506301ffc9a760e01b6001600160e01b0319831614610326565b6000826000018281548110610da157610da16118ef565b9060005260206000200154905092915050565b8080610dc857506001600160a01b03821615155b15610e8a576000610dd884610a13565b90506001600160a01b03831615801590610e045750826001600160a01b0316816001600160a01b031614155b8015610e175750610e1581846109aa565b155b15610e405760405163a9fbf51f60e01b81526001600160a01b03841660048201526024016105bd565b8115610e885783856001600160a01b0316826001600160a01b03167f8c5be1e5ebec7d5bd14f71427d1e84f3dd0314c0f7b2291e5b200ac8c7c3b92560405160405180910390a45b505b5050600090815260046020526040902080546001600160a01b0319166001600160a01b0392909216919091179055565b600080610ec88585856111b8565b90506001600160a01b038116610f2557610f2084600880546000838152600960205260408120829055600182018355919091527ff3f7a9fe364faab93b216da50a3214154f22a0a2b415b23a84c8169e8b636ee30155565b610f48565b846001600160a01b0316816001600160a01b031614610f4857610f4881856112b1565b6001600160a01b038516610f6457610f5f84611342565b610aa5565b846001600160a01b0316816001600160a01b031614610aa557610aa585856113f1565b60008181526001830160205260408120548015611070576000610fab6001836119f1565b8554909150600090610fbf906001906119f1565b9050808214611024576000866000018281548110610fdf57610fdf6118ef565b9060005260206000200154905080876000018481548110611002576110026118ef565b6000918252602080832090910192909255918252600188019052604090208390555b855486908061103557611035611a04565b600190038181906000526020600020016000905590558560010160008681526020019081526020016000206000905560019350505050610326565b6000915050610326565b60008181526001830160205260408120546110c157508154600181810184556000848152602080822090930184905584548482528286019093526040902091909155610326565b506000610326565b6110d38383611441565b6106a76000848484610b7e565b60008072184f03e93ff9f4daa797ed6e38ed64bf6a1f0160401b831061111f5772184f03e93ff9f4daa797ed6e38ed64bf6a1f0160401b830492506040015b6d04ee2d6d415b85acef8100000000831061114b576d04ee2d6d415b85acef8100000000830492506020015b662386f26fc10000831061116957662386f26fc10000830492506010015b6305f5e1008310611181576305f5e100830492506008015b612710831061119557612710830492506004015b606483106111a7576064830492506002015b600a83106103265760010192915050565b6000828152600260205260408120546001600160a01b03908116908316156111e5576111e58184866114a6565b6001600160a01b0381161561122357611202600085600080610db4565b6001600160a01b038116600090815260036020526040902080546000190190555b6001600160a01b03851615611252576001600160a01b0385166000908152600360205260409020805460010190555b60008481526002602052604080822080546001600160a01b0319166001600160a01b0389811691821790925591518793918516917fddf252ad1be2c89b69c2b068fc378daa952ba7f163c4a11628f55a4df523b3ef91a4949350505050565b60006112bc836107ac565b60008381526007602052604090205490915080821461130f576001600160a01b03841660009081526006602090815260408083208584528252808320548484528184208190558352600790915290208190555b5060009182526007602090815260408084208490556001600160a01b039094168352600681528383209183525290812055565b600854600090611354906001906119f1565b6000838152600960205260408120546008805493945090928490811061137c5761137c6118ef565b90600052602060002001549050806008838154811061139d5761139d6118ef565b60009182526020808320909101929092558281526009909152604080822084905585825281205560088054806113d5576113d5611a04565b6001900381819060005260206000200160009055905550505050565b600060016113fe846107ac565b61140891906119f1565b6001600160a01b039093166000908152600660209081526040808320868452825280832085905593825260079052919091209190915550565b6001600160a01b03821661146b57604051633250574960e11b8152600060048201526024016105bd565b600061147983836000610a59565b90506001600160a01b038116156106a7576040516339e3563760e11b8152600060048201526024016105bd565b6114b183838361150a565b6106a7576001600160a01b0383166114df57604051637e27328960e01b8152600481018290526024016105bd565b60405163177e802f60e01b81526001600160a01b0383166004820152602481018290526044016105bd565b60006001600160a01b03831615801590610aa55750826001600160a01b0316846001600160a01b03161480611544575061154484846109aa565b80610aa55750506000908152600460205260409020546001600160a01b03908116911614919050565b6001600160e01b03198116811461158357600080fd5b50565b60006020828403121561159857600080fd5b81356109298161156d565b602080825282518282018190526000918401906040840190835b81811015611607578351805184526020808201516001600160a01b0316818601526040808301519086015260609182015191850191909152909301926080909201916001016115bd565b509095945050505050565b60005b8381101561162d578181015183820152602001611615565b50506000910152565b6000815180845261164e816020860160208601611612565b601f01601f19169290920160200192915050565b6020815260006109296020830184611636565b60006020828403121561168757600080fd5b5035919050565b600080604083850312156116a157600080fd5b50508035926020909101359150565b80356001600160a01b03811681146116c757600080fd5b919050565b600080604083850312156116df57600080fd5b6116e8836116b0565b946020939093013593505050565b60008060006060848603121561170b57600080fd5b611714846116b0565b9250611722602085016116b0565b929592945050506040919091013590565b60006020828403121561174557600080fd5b610929826116b0565b6000806040838503121561176157600080fd5b61176a836116b0565b91506020830135801515811461177f57600080fd5b809150509250929050565b634e487b7160e01b600052604160045260246000fd5b600080600080608085870312156117b657600080fd5b6117bf856116b0565b93506117cd602086016116b0565b925060408501359150606085013567ffffffffffffffff8111156117f057600080fd5b8501601f8101871361180157600080fd5b803567ffffffffffffffff81111561181b5761181b61178a565b604051601f8201601f19908116603f0116810167ffffffffffffffff8111828210171561184a5761184a61178a565b60405281815282820160200189101561186257600080fd5b8160208401602083013760006020838301015280935050505092959194509250565b602080825282518282018190526000918401906040840190835b8181101561160757835183526020938401939092019160010161189e565b600080604083850312156118cf57600080fd5b6118d8836116b0565b91506118e6602084016116b0565b90509250929050565b634e487b7160e01b600052603260045260246000fd5b600181811c9082168061191957607f821691505b60208210810361044d57634e487b7160e01b600052602260045260246000fd5b634e487b7160e01b600052601160045260246000fd5b60006001820161196157611961611939565b5060010190565b6000835161197a818460208801611612565b83519083019061198e818360208801611612565b01949350505050565b6001600160a01b03858116825284166020820152604081018390526080606082018190526000906119ca90830184611636565b9695505050505050565b6000602082840312156119e657600080fd5b81516109298161156d565b8181038181111561032657610326611939565b634e487b7160e01b600052603160045260246000fdfea264697066735822122030dafa2ae19acb885bd1369f9ffff98125841d3e1c6fc12111ca405161c7c73f64736f6c634300081a0033",
  "devdoc": {
    "errors": {
      "ERC721EnumerableForbiddenBatchMint()": [
        {
          "details": "Batch mint is not allowed."
        }
      ],
      "ERC721IncorrectOwner(address,uint256,address)": [
        {
          "details": "Indicates an error related to the ownership over a particular token. Used in transfers.",
          "params": {
            "owner": "Address of the current owner of a token.",
            "sender": "Address whose tokens are being transferred.",
            "tokenId": "Identifier number of a token."
          }
        }
      ],
      "ERC721InsufficientApproval(address,uint256)": [
        {
          "details": "Indicates a failure with the `operator`s approval. Used in transfers.",
          "params": {
            "operator": "Address that may be allowed to operate on tokens without being their owner.",
            "tokenId": "Identifier number of a token."
          }
        }
      ],
      "ERC721InvalidApprover(address)": [
        {
          "details": "Indicates a failure with the `approver` of a token to be approved. Used in approvals.",
          "params": {
            "approver": "Address initiating an approval operation."
          }
        }
      ],
      "ERC721InvalidOperator(address)": [
        {
          "details": "Indicates a failure with the `operator` to be approved. Used in approvals.",
          "params": {
            "operator": "Address that may be allowed to operate on tokens without being their owner."
          }
        }
      ],
      "ERC721InvalidOwner(address)": [
        {
          "details": "Indicates that an address can't be an owner. For example, `address(0)` is a forbidden owner in EIP-20. Used in balance queries.",
          "params": {
            "owner": "Address of the current owner of a token."
          }
        }
      ],
      "ERC721InvalidReceiver(address)": [
        {
          "details": "Indicates a failure with the token `receiver`. Used in transfers.",
          "params": {
            "receiver": "Address to which tokens are being transferred."
          }
        }
      ],
      "ERC721InvalidSender(address)": [
        {
          "details": "Indicates a failure with the token `sender`. Used in transfers.",
          "params": {
            "sender": "Address whose tokens are being transferred."
          }
        }
      ],
      "ERC721NonexistentToken(uint256)": [
        {
          "details": "Indicates a `tokenId` whose `owner` is the zero address.",
          "params": {
            "tokenId": "Identifier number of a token."
          }
        }
      ],
      "ERC721OutOfBoundsIndex(address,uint256)": [
        {
          "details": "An `owner`'s token query was out of bounds for `index`. NOTE: The owner being `address(0)` indicates a global out of bounds index."
        }
      ]
    },
    "events": {
      "Approval(address,address,uint256)": {
        "details": "Emitted when `owner` enables `approved` to manage the `tokenId` token."
      },
      "ApprovalForAll(address,address,bool)": {
        "details": "Emitted when `owner` enables or disables (`approved`) `operator` to manage all of its assets."
      },
      "Transfer(address,address,uint256)": {
        "details": "Emitted when `tokenId` token is transferred from `from` to `to`."
      }
    },
    "kind": "dev",
    "methods": {
      "approve(address,uint256)": {
        "details": "See {IERC721-approve}."
      },
      "balanceOf(address)": {
        "details": "See {IERC721-balanceOf}."
      },
      "getApproved(uint256)": {
        "details": "See {IERC721-getApproved}."
      },
      "isApprovedForAll(address,address)": {
        "details": "See {IERC721-isApprovedForAll}."
      },
      "name()": {
        "details": "See {IERC721Metadata-name}."
      },
      "ownerOf(uint256)": {
        "details": "See {IERC721-ownerOf}."
      },
      "safeTransferFrom(address,address,uint256)": {
        "details": "See {IERC721-safeTransferFrom}."
      },
      "safeTransferFrom(address,address,uint256,bytes)": {
        "details": "See {IERC721-safeTransferFrom}."
      },
      "setApprovalForAll(address,bool)": {
        "details": "See {IERC721-setApprovalForAll}."
      },
      "symbol()": {
        "details": "See {IERC721Metadata-symbol}."
      },
      "tokenByIndex(uint256)": {
        "details": "See {IERC721Enumerable-tokenByIndex}."
      },
      "tokenOfOwnerByIndex(address,uint256)": {
        "details": "See {IERC721Enumerable-tokenOfOwnerByIndex}."
      },
      "tokenURI(uint256)": {
        "details": "See {IERC721Metadata-tokenURI}."
      },
      "totalSupply()": {
        "details": "See {IERC721Enumerable-totalSupply}."
      },
      "transferFrom(address,address,uint256)": {
        "details": "See {IERC721-transferFrom}."
      }
    },
    "version": 1
  },
  "userdoc": {
    "kind": "user",
    "methods": {},
    "version": 1
  },
  "storageLayout": {
    "storage": [
      {
        "astId": 169,
        "contract": "contracts/ChainPortalNFT.sol:ChainPortalNFT",
        "label": "_name",
        "offset": 0,
        "slot": "0",
        "type": "t_string_storage"
      },
      {
        "astId": 171,
        "contract": "contracts/ChainPortalNFT.sol:ChainPortalNFT",
        "label": "_symbol",
        "offset": 0,
        "slot": "1",
        "type": "t_string_storage"
      },
      {
        "astId": 175,
        "contract": "contracts/ChainPortalNFT.sol:ChainPortalNFT",
        "label": "_owners",
        "offset": 0,
        "slot": "2",
        "type": "t_mapping(t_uint256,t_address)"
      },
      {
        "astId": 179,
        "contract": "contracts/ChainPortalNFT.sol:ChainPortalNFT",
        "label": "_balances",
        "offset": 0,
        "slot": "3",
        "type": "t_mapping(t_address,t_uint256)"
      },
      {
        "astId": 183,
        "contract": "contracts/ChainPortalNFT.sol:ChainPortalNFT",
        "label": "_tokenApprovals",
        "offset": 0,
        "slot": "4",
        "type": "t_mapping(t_uint256,t_address)"
      },
      {
        "astId": 189,
        "contract": "contracts/ChainPortalNFT.sol:ChainPortalNFT",
        "label": "_operatorApprovals",
        "offset": 0,
        "slot": "5",
        "type": "t_mapping(t_address,t_mapping(t_address,t_bool))"
      },
      {
        "astId": 1328,
        "contract": "contracts/ChainPortalNFT.sol:ChainPortalNFT",
        "label": "_ownedTokens",
        "offset": 0,
        "slot": "6",
        "type": "t_mapping(t_address,t_mapping(t_uint256,t_uint256))"
      },
      {
        "astId": 1332,
        "contract": "contracts/ChainPortalNFT.sol:ChainPortalNFT",
        "label": "_ownedTokensIndex",
        "offset": 0,
        "slot": "7",
        "type": "t_mapping(t_uint256,t_uint256)"
      },
      {
        "astId": 1335,
        "contract": "contracts/ChainPortalNFT.sol:ChainPortalNFT",
        "label": "_allTokens",
        "offset": 0,
        "slot": "8",
        "type": "t_array(t_uint256)dyn_storage"
      },
      {
        "astId": 1339,
        "contract": "contracts/ChainPortalNFT.sol:ChainPortalNFT",
        "label": "_allTokensIndex",
        "offset": 0,
        "slot": "9",
        "type": "t_mapping(t_uint256,t_uint256)"
      },
      {
        "astId": 3873,
        "contract": "contracts/ChainPortalNFT.sol:ChainPortalNFT",
        "label": "nextTokenId",
        "offset": 0,
        "slot": "10",
        "type": "t_uint256"
      },
      {
        "astId": 3876,
        "contract": "contracts/ChainPortalNFT.sol:ChainPortalNFT",
        "label": "tokenIds",
        "offset": 0,
        "slot": "11",
        "type": "t_struct(UintSet)3716_storage"
      },
      {
        "astId": 3881,
        "contract": "contracts/ChainPortalNFT.sol:ChainPortalNFT",
        "label": "tokenMetadatas",
        "offset": 0,
        "slot": "13",
        "type": "t_mapping(t_uint256,t_struct(Metadata)3871_storage)"
      }
    ],
    "types": {
      "t_address": {
        "encoding": "inplace",
        "label": "address",
        "numberOfBytes": "20"
      },
      "t_array(t_bytes32)dyn_storage": {
        "base": "t_bytes32",
        "encoding": "dynamic_array",
        "label": "bytes32[]",
        "numberOfBytes": "32"
      },
      "t_array(t_uint256)dyn_storage": {
        "base": "t_uint256",
        "encoding": "dynamic_array",
        "label": "uint256[]",
        "numberOfBytes": "32"
      },
      "t_bool": {
        "encoding": "inplace",
        "label": "bool",
        "numberOfBytes": "1"
      },
      "t_bytes32": {
        "encoding": "inplace",
        "label": "bytes32",
        "numberOfBytes": "32"
      },
      "t_mapping(t_address,t_bool)": {
        "encoding": "mapping",
        "key": "t_address",
        "label": "mapping(address => bool)",
        "numberOfBytes": "32",
        "value": "t_bool"
      },
      "t_mapping(t_address,t_mapping(t_address,t_bool))": {
        "encoding": "mapping",
        "key": "t_address",
        "label": "mapping(address => mapping(address => bool))",
        "numberOfBytes": "32",
        "value": "t_mapping(t_address,t_bool)"
      },
      "t_mapping(t_address,t_mapping(t_uint256,t_uint256))": {
        "encoding": "mapping",
        "key": "t_address",
        "label": "mapping(address => mapping(uint256 => uint256))",
        "numberOfBytes": "32",
        "value": "t_mapping(t_uint256,t_uint256)"
      },
      "t_mapping(t_address,t_uint256)": {
        "encoding": "mapping",
        "key": "t_address",
        "label": "mapping(address => uint256)",
        "numberOfBytes": "32",
        "value": "t_uint256"
      },
      "t_mapping(t_bytes32,t_uint256)": {
        "encoding": "mapping",
        "key": "t_bytes32",
        "label": "mapping(bytes32 => uint256)",
        "numberOfBytes": "32",
        "value": "t_uint256"
      },
      "t_mapping(t_uint256,t_address)": {
        "encoding": "mapping",
        "key": "t_uint256",
        "label": "mapping(uint256 => address)",
        "numberOfBytes": "32",
        "value": "t_address"
      },
      "t_mapping(t_uint256,t_struct(Metadata)3871_storage)": {
        "encoding": "mapping",
        "key": "t_uint256",
        "label": "mapping(uint256 => struct ChainPortalNFT.Metadata)",
        "numberOfBytes": "32",
        "value": "t_struct(Metadata)3871_storage"
      },
      "t_mapping(t_uint256,t_uint256)": {
        "encoding": "mapping",
        "key": "t_uint256",
        "label": "mapping(uint256 => uint256)",
        "numberOfBytes": "32",
        "value": "t_uint256"
      },
      "t_string_storage": {
        "encoding": "bytes",
        "label": "string",
        "numberOfBytes": "32"
      },
      "t_struct(Metadata)3871_storage": {
        "encoding": "inplace",
        "label": "struct ChainPortalNFT.Metadata",
        "members": [
          {
            "astId": 3864,
            "contract": "contracts/ChainPortalNFT.sol:ChainPortalNFT",
            "label": "tokenId",
            "offset": 0,
            "slot": "0",
            "type": "t_uint256"
          },
          {
            "astId": 3866,
            "contract": "contracts/ChainPortalNFT.sol:ChainPortalNFT",
            "label": "owner",
            "offset": 0,
            "slot": "1",
            "type": "t_address"
          },
          {
            "astId": 3868,
            "contract": "contracts/ChainPortalNFT.sol:ChainPortalNFT",
            "label": "score",
            "offset": 0,
            "slot": "2",
            "type": "t_uint256"
          },
          {
            "astId": 3870,
            "contract": "contracts/ChainPortalNFT.sol:ChainPortalNFT",
            "label": "oxygen",
            "offset": 0,
            "slot": "3",
            "type": "t_uint256"
          }
        ],
        "numberOfBytes": "128"
      },
      "t_struct(Set)3244_storage": {
        "encoding": "inplace",
        "label": "struct EnumerableSet.Set",
        "members": [
          {
            "astId": 3239,
            "contract": "contracts/ChainPortalNFT.sol:ChainPortalNFT",
            "label": "_values",
            "offset": 0,
            "slot": "0",
            "type": "t_array(t_bytes32)dyn_storage"
          },
          {
            "astId": 3243,
            "contract": "contracts/ChainPortalNFT.sol:ChainPortalNFT",
            "label": "_positions",
            "offset": 0,
            "slot": "1",
            "type": "t_mapping(t_bytes32,t_uint256)"
          }
        ],
        "numberOfBytes": "64"
      },
      "t_struct(UintSet)3716_storage": {
        "encoding": "inplace",
        "label": "struct EnumerableSet.UintSet",
        "members": [
          {
            "astId": 3715,
            "contract": "contracts/ChainPortalNFT.sol:ChainPortalNFT",
            "label": "_inner",
            "offset": 0,
            "slot": "0",
            "type": "t_struct(Set)3244_storage"
          }
        ],
        "numberOfBytes": "64"
      },
      "t_uint256": {
        "encoding": "inplace",
        "label": "uint256",
        "numberOfBytes": "32"
      }
    }
  }
}