{
  "address": "0x74b8c21F230C168de61451ED79dfDE2FCE83911f",
  "abi": [
    {
      "inputs": [
        {
          "internalType": "address",
          "name": "_usdcToken",
          "type": "address"
        }
      ],
      "stateMutability": "nonpayable",
      "type": "constructor"
    },
    {
      "inputs": [
        {
          "internalType": "address",
          "name": "target",
          "type": "address"
        }
      ],
      "name": "AddressEmptyCode",
      "type": "error"
    },
    {
      "inputs": [
        {
          "internalType": "address",
          "name": "account",
          "type": "address"
        }
      ],
      "name": "AddressInsufficientBalance",
      "type": "error"
    },
    {
      "inputs": [],
      "name": "ERC721EnumerableForbiddenBatchMint",
      "type": "error"
    },
    {
      "inputs": [
        {
          "internalType": "address",
          "name": "sender",
          "type": "address"
        },
        {
          "internalType": "uint256",
          "name": "tokenId",
          "type": "uint256"
        },
        {
          "internalType": "address",
          "name": "owner",
          "type": "address"
        }
      ],
      "name": "ERC721IncorrectOwner",
      "type": "error"
    },
    {
      "inputs": [
        {
          "internalType": "address",
          "name": "operator",
          "type": "address"
        },
        {
          "internalType": "uint256",
          "name": "tokenId",
          "type": "uint256"
        }
      ],
      "name": "ERC721InsufficientApproval",
      "type": "error"
    },
    {
      "inputs": [
        {
          "internalType": "address",
          "name": "approver",
          "type": "address"
        }
      ],
      "name": "ERC721InvalidApprover",
      "type": "error"
    },
    {
      "inputs": [
        {
          "internalType": "address",
          "name": "operator",
          "type": "address"
        }
      ],
      "name": "ERC721InvalidOperator",
      "type": "error"
    },
    {
      "inputs": [
        {
          "internalType": "address",
          "name": "owner",
          "type": "address"
        }
      ],
      "name": "ERC721InvalidOwner",
      "type": "error"
    },
    {
      "inputs": [
        {
          "internalType": "address",
          "name": "receiver",
          "type": "address"
        }
      ],
      "name": "ERC721InvalidReceiver",
      "type": "error"
    },
    {
      "inputs": [
        {
          "internalType": "address",
          "name": "sender",
          "type": "address"
        }
      ],
      "name": "ERC721InvalidSender",
      "type": "error"
    },
    {
      "inputs": [
        {
          "internalType": "uint256",
          "name": "tokenId",
          "type": "uint256"
        }
      ],
      "name": "ERC721NonexistentToken",
      "type": "error"
    },
    {
      "inputs": [
        {
          "internalType": "address",
          "name": "owner",
          "type": "address"
        },
        {
          "internalType": "uint256",
          "name": "index",
          "type": "uint256"
        }
      ],
      "name": "ERC721OutOfBoundsIndex",
      "type": "error"
    },
    {
      "inputs": [],
      "name": "FailedInnerCall",
      "type": "error"
    },
    {
      "inputs": [],
      "name": "NotOwner",
      "type": "error"
    },
    {
      "inputs": [
        {
          "internalType": "address",
          "name": "token",
          "type": "address"
        }
      ],
      "name": "SafeERC20FailedOperation",
      "type": "error"
    },
    {
      "anonymous": false,
      "inputs": [
        {
          "indexed": true,
          "internalType": "address",
          "name": "owner",
          "type": "address"
        },
        {
          "indexed": true,
          "internalType": "address",
          "name": "approved",
          "type": "address"
        },
        {
          "indexed": true,
          "internalType": "uint256",
          "name": "tokenId",
          "type": "uint256"
        }
      ],
      "name": "Approval",
      "type": "event"
    },
    {
      "anonymous": false,
      "inputs": [
        {
          "indexed": true,
          "internalType": "address",
          "name": "owner",
          "type": "address"
        },
        {
          "indexed": true,
          "internalType": "address",
          "name": "operator",
          "type": "address"
        },
        {
          "indexed": false,
          "internalType": "bool",
          "name": "approved",
          "type": "bool"
        }
      ],
      "name": "ApprovalForAll",
      "type": "event"
    },
    {
      "anonymous": false,
      "inputs": [
        {
          "indexed": true,
          "internalType": "uint256",
          "name": "tokenId",
          "type": "uint256"
        },
        {
          "indexed": true,
          "internalType": "address",
          "name": "owner",
          "type": "address"
        },
        {
          "indexed": true,
          "internalType": "uint256",
          "name": "oxygen",
          "type": "uint256"
        }
      ],
      "name": "OxygenUpdated",
      "type": "event"
    },
    {
      "anonymous": false,
      "inputs": [
        {
          "indexed": true,
          "internalType": "uint256",
          "name": "tokenId",
          "type": "uint256"
        },
        {
          "indexed": true,
          "internalType": "address",
          "name": "owner",
          "type": "address"
        },
        {
          "indexed": true,
          "internalType": "uint256",
          "name": "score",
          "type": "uint256"
        }
      ],
      "name": "ScoreUpdated",
      "type": "event"
    },
    {
      "anonymous": false,
      "inputs": [
        {
          "indexed": true,
          "internalType": "address",
          "name": "from",
          "type": "address"
        },
        {
          "indexed": true,
          "internalType": "address",
          "name": "to",
          "type": "address"
        },
        {
          "indexed": true,
          "internalType": "uint256",
          "name": "tokenId",
          "type": "uint256"
        }
      ],
      "name": "Transfer",
      "type": "event"
    },
    {
      "inputs": [],
      "name": "USDC_OXYGEN_RATE",
      "outputs": [
        {
          "internalType": "uint8",
          "name": "",
          "type": "uint8"
        }
      ],
      "stateMutability": "view",
      "type": "function"
    },
    {
      "inputs": [
        {
          "internalType": "address",
          "name": "to",
          "type": "address"
        },
        {
          "internalType": "uint256",
          "name": "tokenId",
          "type": "uint256"
        }
      ],
      "name": "approve",
      "outputs": [],
      "stateMutability": "nonpayable",
      "type": "function"
    },
    {
      "inputs": [
        {
          "internalType": "address",
          "name": "owner",
          "type": "address"
        }
      ],
      "name": "balanceOf",
      "outputs": [
        {
          "internalType": "uint256",
          "name": "",
          "type": "uint256"
        }
      ],
      "stateMutability": "view",
      "type": "function"
    },
    {
      "inputs": [
        {
          "internalType": "uint256",
          "name": "_tokenId",
          "type": "uint256"
        }
      ],
      "name": "burn",
      "outputs": [],
      "stateMutability": "nonpayable",
      "type": "function"
    },
    {
      "inputs": [
        {
          "internalType": "uint256",
          "name": "_usdcAmount",
          "type": "uint256"
        },
        {
          "internalType": "uint256",
          "name": "_tokenId",
          "type": "uint256"
        }
      ],
      "name": "buyOxygen",
      "outputs": [],
      "stateMutability": "nonpayable",
      "type": "function"
    },
    {
      "inputs": [],
      "name": "getAllTokenIds",
      "outputs": [
        {
          "internalType": "uint256[]",
          "name": "",
          "type": "uint256[]"
        }
      ],
      "stateMutability": "view",
      "type": "function"
    },
    {
      "inputs": [],
      "name": "getAllTokenMetadatas",
      "outputs": [
        {
          "components": [
            {
              "internalType": "uint256",
              "name": "tokenId",
              "type": "uint256"
            },
            {
              "internalType": "address",
              "name": "owner",
              "type": "address"
            },
            {
              "internalType": "uint256",
              "name": "score",
              "type": "uint256"
            },
            {
              "internalType": "uint256",
              "name": "oxygen",
              "type": "uint256"
            }
          ],
          "internalType": "struct ChainPortalNFT.Metadata[]",
          "name": "",
          "type": "tuple[]"
        }
      ],
      "stateMutability": "view",
      "type": "function"
    },
    {
      "inputs": [
        {
          "internalType": "uint256",
          "name": "tokenId",
          "type": "uint256"
        }
      ],
      "name": "getApproved",
      "outputs": [
        {
          "internalType": "address",
          "name": "",
          "type": "address"
        }
      ],
      "stateMutability": "view",
      "type": "function"
    },
    {
      "inputs": [
        {
          "internalType": "address",
          "name": "owner",
          "type": "address"
        },
        {
          "internalType": "address",
          "name": "operator",
          "type": "address"
        }
      ],
      "name": "isApprovedForAll",
      "outputs": [
        {
          "internalType": "bool",
          "name": "",
          "type": "bool"
        }
      ],
      "stateMutability": "view",
      "type": "function"
    },
    {
      "inputs": [],
      "name": "name",
      "outputs": [
        {
          "internalType": "string",
          "name": "",
          "type": "string"
        }
      ],
      "stateMutability": "view",
      "type": "function"
    },
    {
      "inputs": [],
      "name": "nextTokenId",
      "outputs": [
        {
          "internalType": "uint256",
          "name": "",
          "type": "uint256"
        }
      ],
      "stateMutability": "view",
      "type": "function"
    },
    {
      "inputs": [
        {
          "internalType": "uint256",
          "name": "tokenId",
          "type": "uint256"
        }
      ],
      "name": "ownerOf",
      "outputs": [
        {
          "internalType": "address",
          "name": "",
          "type": "address"
        }
      ],
      "stateMutability": "view",
      "type": "function"
    },
    {
      "inputs": [],
      "name": "safeMint",
      "outputs": [],
      "stateMutability": "nonpayable",
      "type": "function"
    },
    {
      "inputs": [
        {
          "internalType": "address",
          "name": "from",
          "type": "address"
        },
        {
          "internalType": "address",
          "name": "to",
          "type": "address"
        },
        {
          "internalType": "uint256",
          "name": "tokenId",
          "type": "uint256"
        }
      ],
      "name": "safeTransferFrom",
      "outputs": [],
      "stateMutability": "nonpayable",
      "type": "function"
    },
    {
      "inputs": [
        {
          "internalType": "address",
          "name": "from",
          "type": "address"
        },
        {
          "internalType": "address",
          "name": "to",
          "type": "address"
        },
        {
          "internalType": "uint256",
          "name": "tokenId",
          "type": "uint256"
        },
        {
          "internalType": "bytes",
          "name": "data",
          "type": "bytes"
        }
      ],
      "name": "safeTransferFrom",
      "outputs": [],
      "stateMutability": "nonpayable",
      "type": "function"
    },
    {
      "inputs": [
        {
          "internalType": "address",
          "name": "operator",
          "type": "address"
        },
        {
          "internalType": "bool",
          "name": "approved",
          "type": "bool"
        }
      ],
      "name": "setApprovalForAll",
      "outputs": [],
      "stateMutability": "nonpayable",
      "type": "function"
    },
    {
      "inputs": [
        {
          "internalType": "bytes4",
          "name": "interfaceId",
          "type": "bytes4"
        }
      ],
      "name": "supportsInterface",
      "outputs": [
        {
          "internalType": "bool",
          "name": "",
          "type": "bool"
        }
      ],
      "stateMutability": "view",
      "type": "function"
    },
    {
      "inputs": [],
      "name": "symbol",
      "outputs": [
        {
          "internalType": "string",
          "name": "",
          "type": "string"
        }
      ],
      "stateMutability": "view",
      "type": "function"
    },
    {
      "inputs": [
        {
          "internalType": "uint256",
          "name": "index",
          "type": "uint256"
        }
      ],
      "name": "tokenByIndex",
      "outputs": [
        {
          "internalType": "uint256",
          "name": "",
          "type": "uint256"
        }
      ],
      "stateMutability": "view",
      "type": "function"
    },
    {
      "inputs": [
        {
          "internalType": "address",
          "name": "owner",
          "type": "address"
        },
        {
          "internalType": "uint256",
          "name": "index",
          "type": "uint256"
        }
      ],
      "name": "tokenOfOwnerByIndex",
      "outputs": [
        {
          "internalType": "uint256",
          "name": "",
          "type": "uint256"
        }
      ],
      "stateMutability": "view",
      "type": "function"
    },
    {
      "inputs": [
        {
          "internalType": "uint256",
          "name": "tokenId",
          "type": "uint256"
        }
      ],
      "name": "tokenURI",
      "outputs": [
        {
          "internalType": "string",
          "name": "",
          "type": "string"
        }
      ],
      "stateMutability": "view",
      "type": "function"
    },
    {
      "inputs": [],
      "name": "totalSupply",
      "outputs": [
        {
          "internalType": "uint256",
          "name": "",
          "type": "uint256"
        }
      ],
      "stateMutability": "view",
      "type": "function"
    },
    {
      "inputs": [
        {
          "internalType": "address",
          "name": "from",
          "type": "address"
        },
        {
          "internalType": "address",
          "name": "to",
          "type": "address"
        },
        {
          "internalType": "uint256",
          "name": "tokenId",
          "type": "uint256"
        }
      ],
      "name": "transferFrom",
      "outputs": [],
      "stateMutability": "nonpayable",
      "type": "function"
    },
    {
      "inputs": [
        {
          "internalType": "uint256",
          "name": "_tokenId",
          "type": "uint256"
        },
        {
          "internalType": "uint256",
          "name": "_score",
          "type": "uint256"
        }
      ],
      "name": "updateScore",
      "outputs": [],
      "stateMutability": "nonpayable",
      "type": "function"
    },
    {
      "inputs": [],
      "name": "usdcToken",
      "outputs": [
        {
          "internalType": "contract IERC20",
          "name": "",
          "type": "address"
        }
      ],
      "stateMutability": "view",
      "type": "function"
    }
  ],
  "transactionHash": "0xa6ad5c5c4fff7938ffb6512558920e0c60051cb028d3f86eca28a92c0e8f1b6f",
  "args": [
    "0x036CbD53842c5426634e7929541eC2318f3dCF7e"
  ],
  "numDeployments": 2,
  "solcInputHash": "c17067739a00bad499ea4864ee33c482",
  "bytecode": "0x60a060405234801561001057600080fd5b50604051611fba380380611fba83398101604081905261002f9161009f565b6040518060400160405280600b81526020016a10da185a5b941bdc9d185b60aa1b8152506040518060400160405280600381526020016210d41560ea1b815250816000908161007e919061016e565b50600161008b828261016e565b5050506001600160a01b031660805261022c565b6000602082840312156100b157600080fd5b81516001600160a01b03811681146100c857600080fd5b9392505050565b634e487b7160e01b600052604160045260246000fd5b600181811c908216806100f957607f821691505b60208210810361011957634e487b7160e01b600052602260045260246000fd5b50919050565b601f82111561016957806000526020600020601f840160051c810160208510156101465750805b601f840160051c820191505b818110156101665760008155600101610152565b50505b505050565b81516001600160401b03811115610187576101876100cf565b61019b8161019584546100e5565b8461011f565b6020601f8211600181146101cf57600083156101b75750848201515b600019600385901b1c1916600184901b178455610166565b600084815260208120601f198516915b828110156101ff57878501518255602094850194600190920191016101df565b508482101561021d5786840151600019600387901b60f8161c191681555b50505050600190811b01905550565b608051611d6c61024e6000396000818161022201526107020152611d6c6000f3fe608060405234801561001057600080fd5b50600436106101735760003560e01c806342966c68116100de57806375794a3c11610097578063b88d4fde11610071578063b88d4fde14610334578063bdbed72214610347578063c87b56dd1461035c578063e985e9c51461036f57600080fd5b806375794a3c1461031057806395d89b4114610319578063a22cb4651461032157600080fd5b806342966c68146102a25780634f6ccce7146102b55780635a7f917e146102c85780636352211e146102e25780636871ee40146102f557806370a08231146102fd57600080fd5b806311eac8551161013057806311eac8551461021d57806318160ddd1461024457806323b872dd146102565780632c32ab50146102695780632f745c591461027c57806342842e0e1461028f57600080fd5b806301ffc9a71461017857806306662387146101a057806306fdde03146101b5578063081812fc146101ca57806309218e7b146101f5578063095ea7b31461020a575b600080fd5b61018b610186366004611831565b610382565b60405190151581526020015b60405180910390f35b6101a8610393565b604051610197919061184e565b6101bd6104ba565b604051610197919061190d565b6101dd6101d8366004611920565b61054c565b6040516001600160a01b039091168152602001610197565b610208610203366004611939565b610575565b005b610208610218366004611977565b6105ef565b6101dd7f000000000000000000000000000000000000000000000000000000000000000081565b6008545b604051908152602001610197565b6102086102643660046119a1565b6105fe565b610208610277366004611939565b61068e565b61024861028a366004611977565b61075f565b61020861029d3660046119a1565b6107c4565b6102086102b0366004611920565b6107e4565b6102486102c3366004611920565b61082b565b6102d0600a81565b60405160ff9091168152602001610197565b6101dd6102f0366004611920565b610884565b61020861088f565b61024861030b3660046119de565b6108e4565b610248600a5481565b6101bd61092c565b61020861032f366004611a07565b61093b565b610208610342366004611a54565b610946565b61034f61095d565b6040516101979190611b38565b6101bd61036a366004611920565b6109f3565b61018b61037d366004611b70565b610a68565b600061038d82610a96565b92915050565b606060006103a1600b610abb565b67ffffffffffffffff8111156103b9576103b9611a3e565b60405190808252806020026020018201604052801561041e57816020015b61040b60405180608001604052806000815260200160006001600160a01b0316815260200160008152602001600081525090565b8152602001906001900390816103d75790505b50905060005b61042e600b610abb565b8110156104b457600d6000610444600b84610ac5565b8152602080820192909252604090810160002081516080810183528154815260018201546001600160a01b03169381019390935260028101549183019190915260030154606082015282518390839081106104a1576104a1611ba3565b6020908102919091010152600101610424565b50919050565b6060600080546104c990611bb9565b80601f01602080910402602001604051908101604052809291908181526020018280546104f590611bb9565b80156105425780601f1061051757610100808354040283529160200191610542565b820191906000526020600020905b81548152906001019060200180831161052557829003601f168201915b5050505050905090565b600061055782610ad1565b506000828152600460205260409020546001600160a01b031661038d565b600061058083610ad1565b90506001600160a01b03811633146105ab576040516330cd747160e01b815260040160405180910390fd5b6000838152600d6020526040808220600201849055518391339186917fcb1751a97077d1d2218ea8f173bcc2c061a9fb6e5681b40dee2c94679d73acc191a4505050565b6105fa828233610b0a565b5050565b6001600160a01b03821661062d57604051633250574960e11b8152600060048201526024015b60405180910390fd5b600061063a838333610b17565b9050836001600160a01b0316816001600160a01b031614610688576040516364283d7b60e01b81526001600160a01b0380861660048301526024820184905282166044820152606401610624565b50505050565b600061069982610ad1565b90506001600160a01b03811633146106c4576040516330cd747160e01b815260040160405180910390fd5b6000620f42406106d585600a611c03565b6106df9190611c1a565b6000848152600d60205260409020600301819055905061072a6001600160a01b037f000000000000000000000000000000000000000000000000000000000000000016333087610b6b565b6040518190339085907fd3fc5432cc4566e70258d01da8ee72d5186224f8494e1646bb0bf251b19877f390600090a450505050565b600061076a836108e4565b821061079b5760405163295f44f760e21b81526001600160a01b038416600482015260248101839052604401610624565b506001600160a01b03919091166000908152600660209081526040808320938352929052205490565b6107df83838360405180602001604052806000815250610946565b505050565b6107ef600b82610bc5565b506000818152600d602052604081208181556001810180546001600160a01b0319169055600281018290556003018190556105fa908233610b17565b600061083660085490565b821061085f5760405163295f44f760e21b81526000600482015260248101839052604401610624565b6008828154811061087257610872611ba3565b90600052602060002001549050919050565b600061038d82610ad1565b600a8054600091826108a083611c3c565b9091555090506108b1600b82610bd1565b506000818152600d602052604090208181556001810180546001600160a01b031916339081179091556105fa9083610bdd565b60006001600160a01b038216610910576040516322718ad960e21b815260006004820152602401610624565b506001600160a01b031660009081526003602052604090205490565b6060600180546104c990611bb9565b6105fa338383610bf7565b6109518484846105fe565b61068884848484610c96565b6060600061096b600b610abb565b67ffffffffffffffff81111561098357610983611a3e565b6040519080825280602002602001820160405280156109ac578160200160208202803683370190505b50905060005b6109bc600b610abb565b8110156104b4576109ce600b82610ac5565b8282815181106109e0576109e0611ba3565b60209081029190910101526001016109b2565b60606109fe82610ad1565b506000610a1660408051602081019091526000815290565b90506000815111610a365760405180602001604052806000815250610a61565b80610a4084610dbf565b604051602001610a51929190611c55565b6040516020818303038152906040525b9392505050565b6001600160a01b03918216600090815260056020908152604080832093909416825291909152205460ff1690565b60006001600160e01b0319821663780e9d6360e01b148061038d575061038d82610e52565b600061038d825490565b6000610a618383610ea2565b6000818152600260205260408120546001600160a01b03168061038d57604051637e27328960e01b815260048101849052602401610624565b6107df8383836001610ecc565b60006001600160a01b03841615610b58576000838152600d602052604081206001810180546001600160a01b0319166001600160a01b038816179055600201555b610b63848484610fd2565b949350505050565b604080516001600160a01b0385811660248301528416604482015260648082018490528251808303909101815260849091019091526020810180516001600160e01b03166323b872dd60e01b17905261068890859061109f565b6000610a618383611102565b6000610a6183836111f5565b6105fa828260405180602001604052806000815250611244565b6001600160a01b038216610c2957604051630b61174360e31b81526001600160a01b0383166004820152602401610624565b6001600160a01b03838116600081815260056020908152604080832094871680845294825291829020805460ff191686151590811790915591519182527f17307eab39ab6107e8899845ad3d59bd9653f200f220920489ca2b5937696c31910160405180910390a3505050565b6001600160a01b0383163b1561068857604051630a85bd0160e11b81526001600160a01b0384169063150b7a0290610cd8903390889087908790600401611c84565b6020604051808303816000875af1925050508015610d13575060408051601f3d908101601f19168201909252610d1091810190611cb7565b60015b610d7c573d808015610d41576040519150601f19603f3d011682016040523d82523d6000602084013e610d46565b606091505b508051600003610d7457604051633250574960e11b81526001600160a01b0385166004820152602401610624565b805181602001fd5b6001600160e01b03198116630a85bd0160e11b14610db857604051633250574960e11b81526001600160a01b0385166004820152602401610624565b5050505050565b60606000610dcc8361125b565b600101905060008167ffffffffffffffff811115610dec57610dec611a3e565b6040519080825280601f01601f191660200182016040528015610e16576020820181803683370190505b5090508181016020015b600019016f181899199a1a9b1b9c1cb0b131b232b360811b600a86061a8153600a8504945084610e2057509392505050565b60006001600160e01b031982166380ac58cd60e01b1480610e8357506001600160e01b03198216635b5e139f60e01b145b8061038d57506301ffc9a760e01b6001600160e01b031983161461038d565b6000826000018281548110610eb957610eb9611ba3565b9060005260206000200154905092915050565b8080610ee057506001600160a01b03821615155b15610fa2576000610ef084610ad1565b90506001600160a01b03831615801590610f1c5750826001600160a01b0316816001600160a01b031614155b8015610f2f5750610f2d8184610a68565b155b15610f585760405163a9fbf51f60e01b81526001600160a01b0384166004820152602401610624565b8115610fa05783856001600160a01b0316826001600160a01b03167f8c5be1e5ebec7d5bd14f71427d1e84f3dd0314c0f7b2291e5b200ac8c7c3b92560405160405180910390a45b505b5050600090815260046020526040902080546001600160a01b0319166001600160a01b0392909216919091179055565b600080610fe0858585611333565b90506001600160a01b03811661103d5761103884600880546000838152600960205260408120829055600182018355919091527ff3f7a9fe364faab93b216da50a3214154f22a0a2b415b23a84c8169e8b636ee30155565b611060565b846001600160a01b0316816001600160a01b03161461106057611060818561142c565b6001600160a01b03851661107c57611077846114bd565b610b63565b846001600160a01b0316816001600160a01b031614610b6357610b63858561156c565b60006110b46001600160a01b038416836115bc565b905080516000141580156110d95750808060200190518101906110d79190611cd4565b155b156107df57604051635274afe760e01b81526001600160a01b0384166004820152602401610624565b600081815260018301602052604081205480156111eb576000611126600183611cf1565b855490915060009061113a90600190611cf1565b905080821461119f57600086600001828154811061115a5761115a611ba3565b906000526020600020015490508087600001848154811061117d5761117d611ba3565b6000918252602080832090910192909255918252600188019052604090208390555b85548690806111b0576111b0611d04565b60019003818190600052602060002001600090559055856001016000868152602001908152602001600020600090556001935050505061038d565b600091505061038d565b600081815260018301602052604081205461123c5750815460018181018455600084815260208082209093018490558454848252828601909352604090209190915561038d565b50600061038d565b61124e83836115ca565b6107df6000848484610c96565b60008072184f03e93ff9f4daa797ed6e38ed64bf6a1f0160401b831061129a5772184f03e93ff9f4daa797ed6e38ed64bf6a1f0160401b830492506040015b6d04ee2d6d415b85acef810000000083106112c6576d04ee2d6d415b85acef8100000000830492506020015b662386f26fc1000083106112e457662386f26fc10000830492506010015b6305f5e10083106112fc576305f5e100830492506008015b612710831061131057612710830492506004015b60648310611322576064830492506002015b600a831061038d5760010192915050565b6000828152600260205260408120546001600160a01b03908116908316156113605761136081848661162f565b6001600160a01b0381161561139e5761137d600085600080610ecc565b6001600160a01b038116600090815260036020526040902080546000190190555b6001600160a01b038516156113cd576001600160a01b0385166000908152600360205260409020805460010190555b60008481526002602052604080822080546001600160a01b0319166001600160a01b0389811691821790925591518793918516917fddf252ad1be2c89b69c2b068fc378daa952ba7f163c4a11628f55a4df523b3ef91a4949350505050565b6000611437836108e4565b60008381526007602052604090205490915080821461148a576001600160a01b03841660009081526006602090815260408083208584528252808320548484528184208190558352600790915290208190555b5060009182526007602090815260408084208490556001600160a01b039094168352600681528383209183525290812055565b6008546000906114cf90600190611cf1565b600083815260096020526040812054600880549394509092849081106114f7576114f7611ba3565b90600052602060002001549050806008838154811061151857611518611ba3565b600091825260208083209091019290925582815260099091526040808220849055858252812055600880548061155057611550611d04565b6001900381819060005260206000200160009055905550505050565b60006001611579846108e4565b6115839190611cf1565b6001600160a01b039093166000908152600660209081526040808320868452825280832085905593825260079052919091209190915550565b6060610a6183836000611693565b6001600160a01b0382166115f457604051633250574960e11b815260006004820152602401610624565b600061160283836000610b17565b90506001600160a01b038116156107df576040516339e3563760e11b815260006004820152602401610624565b61163a838383611730565b6107df576001600160a01b03831661166857604051637e27328960e01b815260048101829052602401610624565b60405163177e802f60e01b81526001600160a01b038316600482015260248101829052604401610624565b6060814710156116b85760405163cd78605960e01b8152306004820152602401610624565b600080856001600160a01b031684866040516116d49190611d1a565b60006040518083038185875af1925050503d8060008114611711576040519150601f19603f3d011682016040523d82523d6000602084013e611716565b606091505b5091509150611726868383611793565b9695505050505050565b60006001600160a01b03831615801590610b635750826001600160a01b0316846001600160a01b0316148061176a575061176a8484610a68565b80610b635750506000908152600460205260409020546001600160a01b03908116911614919050565b6060826117a8576117a3826117ef565b610a61565b81511580156117bf57506001600160a01b0384163b155b156117e857604051639996b31560e01b81526001600160a01b0385166004820152602401610624565b5080610a61565b8051156117ff5780518082602001fd5b604051630a12f52160e11b815260040160405180910390fd5b50565b6001600160e01b03198116811461181857600080fd5b60006020828403121561184357600080fd5b8135610a618161181b565b602080825282518282018190526000918401906040840190835b818110156118b2578351805184526020808201516001600160a01b031681860152604080830151908601526060918201519185019190915290930192608090920191600101611868565b509095945050505050565b60005b838110156118d85781810151838201526020016118c0565b50506000910152565b600081518084526118f98160208601602086016118bd565b601f01601f19169290920160200192915050565b602081526000610a6160208301846118e1565b60006020828403121561193257600080fd5b5035919050565b6000806040838503121561194c57600080fd5b50508035926020909101359150565b80356001600160a01b038116811461197257600080fd5b919050565b6000806040838503121561198a57600080fd5b6119938361195b565b946020939093013593505050565b6000806000606084860312156119b657600080fd5b6119bf8461195b565b92506119cd6020850161195b565b929592945050506040919091013590565b6000602082840312156119f057600080fd5b610a618261195b565b801515811461181857600080fd5b60008060408385031215611a1a57600080fd5b611a238361195b565b91506020830135611a33816119f9565b809150509250929050565b634e487b7160e01b600052604160045260246000fd5b60008060008060808587031215611a6a57600080fd5b611a738561195b565b9350611a816020860161195b565b925060408501359150606085013567ffffffffffffffff811115611aa457600080fd5b8501601f81018713611ab557600080fd5b803567ffffffffffffffff811115611acf57611acf611a3e565b604051601f8201601f19908116603f0116810167ffffffffffffffff81118282101715611afe57611afe611a3e565b604052818152828201602001891015611b1657600080fd5b8160208401602083013760006020838301015280935050505092959194509250565b602080825282518282018190526000918401906040840190835b818110156118b2578351835260209384019390920191600101611b52565b60008060408385031215611b8357600080fd5b611b8c8361195b565b9150611b9a6020840161195b565b90509250929050565b634e487b7160e01b600052603260045260246000fd5b600181811c90821680611bcd57607f821691505b6020821081036104b457634e487b7160e01b600052602260045260246000fd5b634e487b7160e01b600052601160045260246000fd5b808202811582820484141761038d5761038d611bed565b600082611c3757634e487b7160e01b600052601260045260246000fd5b500490565b600060018201611c4e57611c4e611bed565b5060010190565b60008351611c678184602088016118bd565b835190830190611c7b8183602088016118bd565b01949350505050565b6001600160a01b0385811682528416602082015260408101839052608060608201819052600090611726908301846118e1565b600060208284031215611cc957600080fd5b8151610a618161181b565b600060208284031215611ce657600080fd5b8151610a61816119f9565b8181038181111561038d5761038d611bed565b634e487b7160e01b600052603160045260246000fd5b60008251611d2c8184602087016118bd565b919091019291505056fea2646970667358221220ba1837ed5843a7b2429341e6fbbf68917de9a6f17a5b4a91d1c31dad36b7589a64736f6c634300081a0033",
  "devdoc": {
    "errors": {
      "AddressEmptyCode(address)": [
        {
          "details": "There's no code at `target` (it is not a contract)."
        }
      ],
      "AddressInsufficientBalance(address)": [
        {
          "details": "The ETH balance of the account is not enough to perform the operation."
        }
      ],
      "ERC721EnumerableForbiddenBatchMint()": [
        {
          "details": "Batch mint is not allowed."
        }
      ],
      "ERC721IncorrectOwner(address,uint256,address)": [
        {
          "details": "Indicates an error related to the ownership over a particular token. Used in transfers.",
          "params": {
            "owner": "Address of the current owner of a token.",
            "sender": "Address whose tokens are being transferred.",
            "tokenId": "Identifier number of a token."
          }
        }
      ],
      "ERC721InsufficientApproval(address,uint256)": [
        {
          "details": "Indicates a failure with the `operator`s approval. Used in transfers.",
          "params": {
            "operator": "Address that may be allowed to operate on tokens without being their owner.",
            "tokenId": "Identifier number of a token."
          }
        }
      ],
      "ERC721InvalidApprover(address)": [
        {
          "details": "Indicates a failure with the `approver` of a token to be approved. Used in approvals.",
          "params": {
            "approver": "Address initiating an approval operation."
          }
        }
      ],
      "ERC721InvalidOperator(address)": [
        {
          "details": "Indicates a failure with the `operator` to be approved. Used in approvals.",
          "params": {
            "operator": "Address that may be allowed to operate on tokens without being their owner."
          }
        }
      ],
      "ERC721InvalidOwner(address)": [
        {
          "details": "Indicates that an address can't be an owner. For example, `address(0)` is a forbidden owner in EIP-20. Used in balance queries.",
          "params": {
            "owner": "Address of the current owner of a token."
          }
        }
      ],
      "ERC721InvalidReceiver(address)": [
        {
          "details": "Indicates a failure with the token `receiver`. Used in transfers.",
          "params": {
            "receiver": "Address to which tokens are being transferred."
          }
        }
      ],
      "ERC721InvalidSender(address)": [
        {
          "details": "Indicates a failure with the token `sender`. Used in transfers.",
          "params": {
            "sender": "Address whose tokens are being transferred."
          }
        }
      ],
      "ERC721NonexistentToken(uint256)": [
        {
          "details": "Indicates a `tokenId` whose `owner` is the zero address.",
          "params": {
            "tokenId": "Identifier number of a token."
          }
        }
      ],
      "ERC721OutOfBoundsIndex(address,uint256)": [
        {
          "details": "An `owner`'s token query was out of bounds for `index`. NOTE: The owner being `address(0)` indicates a global out of bounds index."
        }
      ],
      "FailedInnerCall()": [
        {
          "details": "A call to an address target failed. The target may have reverted."
        }
      ],
      "SafeERC20FailedOperation(address)": [
        {
          "details": "An operation with an ERC20 token failed."
        }
      ]
    },
    "events": {
      "Approval(address,address,uint256)": {
        "details": "Emitted when `owner` enables `approved` to manage the `tokenId` token."
      },
      "ApprovalForAll(address,address,bool)": {
        "details": "Emitted when `owner` enables or disables (`approved`) `operator` to manage all of its assets."
      },
      "Transfer(address,address,uint256)": {
        "details": "Emitted when `tokenId` token is transferred from `from` to `to`."
      }
    },
    "kind": "dev",
    "methods": {
      "approve(address,uint256)": {
        "details": "See {IERC721-approve}."
      },
      "balanceOf(address)": {
        "details": "See {IERC721-balanceOf}."
      },
      "getApproved(uint256)": {
        "details": "See {IERC721-getApproved}."
      },
      "isApprovedForAll(address,address)": {
        "details": "See {IERC721-isApprovedForAll}."
      },
      "name()": {
        "details": "See {IERC721Metadata-name}."
      },
      "ownerOf(uint256)": {
        "details": "See {IERC721-ownerOf}."
      },
      "safeTransferFrom(address,address,uint256)": {
        "details": "See {IERC721-safeTransferFrom}."
      },
      "safeTransferFrom(address,address,uint256,bytes)": {
        "details": "See {IERC721-safeTransferFrom}."
      },
      "setApprovalForAll(address,bool)": {
        "details": "See {IERC721-setApprovalForAll}."
      },
      "symbol()": {
        "details": "See {IERC721Metadata-symbol}."
      },
      "tokenByIndex(uint256)": {
        "details": "See {IERC721Enumerable-tokenByIndex}."
      },
      "tokenOfOwnerByIndex(address,uint256)": {
        "details": "See {IERC721Enumerable-tokenOfOwnerByIndex}."
      },
      "tokenURI(uint256)": {
        "details": "See {IERC721Metadata-tokenURI}."
      },
      "totalSupply()": {
        "details": "See {IERC721Enumerable-totalSupply}."
      },
      "transferFrom(address,address,uint256)": {
        "details": "See {IERC721-transferFrom}."
      }
    },
    "version": 1
  },
  "userdoc": {
    "kind": "user",
    "methods": {},
    "version": 1
  },
  "storageLayout": {
    "storage": [
      {
        "astId": 573,
        "contract": "contracts/ChainPortalNFT.sol:ChainPortalNFT",
        "label": "_name",
        "offset": 0,
        "slot": "0",
        "type": "t_string_storage"
      },
      {
        "astId": 575,
        "contract": "contracts/ChainPortalNFT.sol:ChainPortalNFT",
        "label": "_symbol",
        "offset": 0,
        "slot": "1",
        "type": "t_string_storage"
      },
      {
        "astId": 579,
        "contract": "contracts/ChainPortalNFT.sol:ChainPortalNFT",
        "label": "_owners",
        "offset": 0,
        "slot": "2",
        "type": "t_mapping(t_uint256,t_address)"
      },
      {
        "astId": 583,
        "contract": "contracts/ChainPortalNFT.sol:ChainPortalNFT",
        "label": "_balances",
        "offset": 0,
        "slot": "3",
        "type": "t_mapping(t_address,t_uint256)"
      },
      {
        "astId": 587,
        "contract": "contracts/ChainPortalNFT.sol:ChainPortalNFT",
        "label": "_tokenApprovals",
        "offset": 0,
        "slot": "4",
        "type": "t_mapping(t_uint256,t_address)"
      },
      {
        "astId": 593,
        "contract": "contracts/ChainPortalNFT.sol:ChainPortalNFT",
        "label": "_operatorApprovals",
        "offset": 0,
        "slot": "5",
        "type": "t_mapping(t_address,t_mapping(t_address,t_bool))"
      },
      {
        "astId": 1732,
        "contract": "contracts/ChainPortalNFT.sol:ChainPortalNFT",
        "label": "_ownedTokens",
        "offset": 0,
        "slot": "6",
        "type": "t_mapping(t_address,t_mapping(t_uint256,t_uint256))"
      },
      {
        "astId": 1736,
        "contract": "contracts/ChainPortalNFT.sol:ChainPortalNFT",
        "label": "_ownedTokensIndex",
        "offset": 0,
        "slot": "7",
        "type": "t_mapping(t_uint256,t_uint256)"
      },
      {
        "astId": 1739,
        "contract": "contracts/ChainPortalNFT.sol:ChainPortalNFT",
        "label": "_allTokens",
        "offset": 0,
        "slot": "8",
        "type": "t_array(t_uint256)dyn_storage"
      },
      {
        "astId": 1743,
        "contract": "contracts/ChainPortalNFT.sol:ChainPortalNFT",
        "label": "_allTokensIndex",
        "offset": 0,
        "slot": "9",
        "type": "t_mapping(t_uint256,t_uint256)"
      },
      {
        "astId": 4542,
        "contract": "contracts/ChainPortalNFT.sol:ChainPortalNFT",
        "label": "nextTokenId",
        "offset": 0,
        "slot": "10",
        "type": "t_uint256"
      },
      {
        "astId": 4545,
        "contract": "contracts/ChainPortalNFT.sol:ChainPortalNFT",
        "label": "tokenIds",
        "offset": 0,
        "slot": "11",
        "type": "t_struct(UintSet)4373_storage"
      },
      {
        "astId": 4550,
        "contract": "contracts/ChainPortalNFT.sol:ChainPortalNFT",
        "label": "tokenMetadatas",
        "offset": 0,
        "slot": "13",
        "type": "t_mapping(t_uint256,t_struct(Metadata)4537_storage)"
      }
    ],
    "types": {
      "t_address": {
        "encoding": "inplace",
        "label": "address",
        "numberOfBytes": "20"
      },
      "t_array(t_bytes32)dyn_storage": {
        "base": "t_bytes32",
        "encoding": "dynamic_array",
        "label": "bytes32[]",
        "numberOfBytes": "32"
      },
      "t_array(t_uint256)dyn_storage": {
        "base": "t_uint256",
        "encoding": "dynamic_array",
        "label": "uint256[]",
        "numberOfBytes": "32"
      },
      "t_bool": {
        "encoding": "inplace",
        "label": "bool",
        "numberOfBytes": "1"
      },
      "t_bytes32": {
        "encoding": "inplace",
        "label": "bytes32",
        "numberOfBytes": "32"
      },
      "t_mapping(t_address,t_bool)": {
        "encoding": "mapping",
        "key": "t_address",
        "label": "mapping(address => bool)",
        "numberOfBytes": "32",
        "value": "t_bool"
      },
      "t_mapping(t_address,t_mapping(t_address,t_bool))": {
        "encoding": "mapping",
        "key": "t_address",
        "label": "mapping(address => mapping(address => bool))",
        "numberOfBytes": "32",
        "value": "t_mapping(t_address,t_bool)"
      },
      "t_mapping(t_address,t_mapping(t_uint256,t_uint256))": {
        "encoding": "mapping",
        "key": "t_address",
        "label": "mapping(address => mapping(uint256 => uint256))",
        "numberOfBytes": "32",
        "value": "t_mapping(t_uint256,t_uint256)"
      },
      "t_mapping(t_address,t_uint256)": {
        "encoding": "mapping",
        "key": "t_address",
        "label": "mapping(address => uint256)",
        "numberOfBytes": "32",
        "value": "t_uint256"
      },
      "t_mapping(t_bytes32,t_uint256)": {
        "encoding": "mapping",
        "key": "t_bytes32",
        "label": "mapping(bytes32 => uint256)",
        "numberOfBytes": "32",
        "value": "t_uint256"
      },
      "t_mapping(t_uint256,t_address)": {
        "encoding": "mapping",
        "key": "t_uint256",
        "label": "mapping(uint256 => address)",
        "numberOfBytes": "32",
        "value": "t_address"
      },
      "t_mapping(t_uint256,t_struct(Metadata)4537_storage)": {
        "encoding": "mapping",
        "key": "t_uint256",
        "label": "mapping(uint256 => struct ChainPortalNFT.Metadata)",
        "numberOfBytes": "32",
        "value": "t_struct(Metadata)4537_storage"
      },
      "t_mapping(t_uint256,t_uint256)": {
        "encoding": "mapping",
        "key": "t_uint256",
        "label": "mapping(uint256 => uint256)",
        "numberOfBytes": "32",
        "value": "t_uint256"
      },
      "t_string_storage": {
        "encoding": "bytes",
        "label": "string",
        "numberOfBytes": "32"
      },
      "t_struct(Metadata)4537_storage": {
        "encoding": "inplace",
        "label": "struct ChainPortalNFT.Metadata",
        "members": [
          {
            "astId": 4530,
            "contract": "contracts/ChainPortalNFT.sol:ChainPortalNFT",
            "label": "tokenId",
            "offset": 0,
            "slot": "0",
            "type": "t_uint256"
          },
          {
            "astId": 4532,
            "contract": "contracts/ChainPortalNFT.sol:ChainPortalNFT",
            "label": "owner",
            "offset": 0,
            "slot": "1",
            "type": "t_address"
          },
          {
            "astId": 4534,
            "contract": "contracts/ChainPortalNFT.sol:ChainPortalNFT",
            "label": "score",
            "offset": 0,
            "slot": "2",
            "type": "t_uint256"
          },
          {
            "astId": 4536,
            "contract": "contracts/ChainPortalNFT.sol:ChainPortalNFT",
            "label": "oxygen",
            "offset": 0,
            "slot": "3",
            "type": "t_uint256"
          }
        ],
        "numberOfBytes": "128"
      },
      "t_struct(Set)3901_storage": {
        "encoding": "inplace",
        "label": "struct EnumerableSet.Set",
        "members": [
          {
            "astId": 3896,
            "contract": "contracts/ChainPortalNFT.sol:ChainPortalNFT",
            "label": "_values",
            "offset": 0,
            "slot": "0",
            "type": "t_array(t_bytes32)dyn_storage"
          },
          {
            "astId": 3900,
            "contract": "contracts/ChainPortalNFT.sol:ChainPortalNFT",
            "label": "_positions",
            "offset": 0,
            "slot": "1",
            "type": "t_mapping(t_bytes32,t_uint256)"
          }
        ],
        "numberOfBytes": "64"
      },
      "t_struct(UintSet)4373_storage": {
        "encoding": "inplace",
        "label": "struct EnumerableSet.UintSet",
        "members": [
          {
            "astId": 4372,
            "contract": "contracts/ChainPortalNFT.sol:ChainPortalNFT",
            "label": "_inner",
            "offset": 0,
            "slot": "0",
            "type": "t_struct(Set)3901_storage"
          }
        ],
        "numberOfBytes": "64"
      },
      "t_uint256": {
        "encoding": "inplace",
        "label": "uint256",
        "numberOfBytes": "32"
      }
    }
  }
}